:100000000C9434000C9475000C9475000C947500DD
:100010000C9475000C9475000C9440000C947500C1
:100020000C9475000C9475000C9475000C9475007C
:100030000C9475000C9475000C9475000C9475006C
:100040000C9475000C9475000C9475000C9475005C
:100050000C9475000C9475000C9475000C9475004C
:100060000C9475000C94750011241FBECFEFD8E0DE
:10007000DEBFCDBF0E9452000C946200F894FFCF07
:100080001F920F920FB60F9211248F939F939BB1E3
:100090008CE789278BB99F918F910F900FBE0F909E
:0400A0001F90189500
:1000A4008AB18C678AB90E946D0083B7817F83BF50
:1000B40083B7816083BF889583B78E7F83BFF5CF75
:1000C400EC010E947A000E947900CE010E947B001C
:0600D400CE010E9477003E
:1000DA00E0E6F0E088E1808386E4808378940895FE
:0400EA000C94000072
:0400EE000E943E002E
:0200F20008956F
:0200F40008956D
:0200F60008956B
:00000001FF
