:100000000C9434000C946B000C946B000C946B00FB
:100010000C946B000C946B000C9440000C946B00DF
:100020000C946B000C946B000C946B000C946B00A4
:100030000C946B000C946B000C946B000C946B0094
:100040000C946B000C946B000C946B000C946B0084
:100050000C946B000C946B000C946B000C946B0074
:100060000C946B000C946B0011241FBECFEFD8E0F2
:10007000DEBFCDBF0E9465000C945200F894FFCF04
:100080001F920F920FB60F9211248F939F939BB1E3
:100090008CE789278BB99F918F910F900FBE0F909E
:0400A0001F90189500
:1000A400EC010E9470000E946F00CE010E9471005A
:0600B400CE010E946D0068
:1000BA00E0E6F0E088E1808386E48083789408951E
:0C00CA008AB18C678AB90E945D00FFCFEC
:0400D6000C94000086
:0400DA000E943E0042
:0200DE00089583
:0200E000089581
:0200E20008957F
:00000001FF
