:100000000C9434000C9476000C9476000C947600DA
:100010000C9476000C9476000C9440000C947600BE
:100020000C9476000C9476000C9476000C94760078
:100030000C9476000C9476000C9476000C94760068
:100040000C9476000C9476000C9476000C94760058
:100050000C9476000C9476000C9476000C94760048
:100060000C9476000C94760011241FBECFEFD8E0DC
:10007000DEBFCDBF0E9452000C946300F894FFCF06
:100080001F920F920FB60F9211248F939F939BB1E3
:100090008CE789278BB99F918F910F900FBE0F909E
:0400A0001F90189500
:1000A4008AB18C678AB90E946E0083B7817F8C60A5
:1000B40083BF83B7816083BF889583B78E7F83BFF7
:0200C400F4CF77
:1000C600EC010E947B000E947A00CE010E947C0017
:0600D600CE010E9478003B
:1000DC00E0E6F0E088E1808386E4808378940895FC
:0400EC000C94000070
:0400F0000E943E002C
:0200F40008956D
:0200F60008956B
:0200F800089569
:00000001FF
